{
  "abi": [
    {
      "inputs": [
        {
          "internalType": "contract ERC20",
          "name": "_poolToken",
          "type": "address"
        },
        {
          "internalType": "address",
          "name": "_phAddr",
          "type": "address"
        },
        {
          "internalType": "address",
          "name": "_rm",
          "type": "address"
        },
        {
          "internalType": "uint256",
          "name": "_maxDuration",
          "type": "uint256"
        },
        {
          "internalType": "uint256",
          "name": "_lendingRate",
          "type": "uint256"
        }
      ],
      "stateMutability": "nonpayable",
      "type": "constructor"
    },
    {
      "anonymous": false,
      "inputs": [
        {
          "indexed": true,
          "internalType": "address",
          "name": "owner",
          "type": "address"
        },
        {
          "indexed": true,
          "internalType": "address",
          "name": "spender",
          "type": "address"
        },
        {
          "indexed": false,
          "internalType": "uint256",
          "name": "value",
          "type": "uint256"
        }
      ],
      "name": "Approval",
      "type": "event"
    },
    {
      "anonymous": false,
      "inputs": [
        {
          "indexed": true,
          "internalType": "address",
          "name": "poolProvider",
          "type": "address"
        },
        {
          "indexed": false,
          "internalType": "uint256",
          "name": "amount",
          "type": "uint256"
        },
        {
          "indexed": false,
          "internalType": "uint256",
          "name": "shares",
          "type": "uint256"
        }
      ],
      "name": "DepositMade",
      "type": "event"
    },
    {
      "anonymous": false,
      "inputs": [
        {
          "indexed": false,
          "internalType": "uint8",
          "name": "version",
          "type": "uint8"
        }
      ],
      "name": "Initialized",
      "type": "event"
    },
    {
      "anonymous": false,
      "inputs": [
        {
          "indexed": true,
          "internalType": "address",
          "name": "approver",
          "type": "address"
        },
        {
          "indexed": true,
          "internalType": "address",
          "name": "borrower",
          "type": "address"
        },
        {
          "indexed": false,
          "internalType": "uint256",
          "name": "loanId",
          "type": "uint256"
        },
        {
          "indexed": false,
          "internalType": "uint256",
          "name": "amount",
          "type": "uint256"
        }
      ],
      "name": "LoanApproved",
      "type": "event"
    },
    {
      "anonymous": false,
      "inputs": [
        {
          "indexed": true,
          "internalType": "address",
          "name": "borrower",
          "type": "address"
        },
        {
          "indexed": false,
          "internalType": "uint256",
          "name": "loanId",
          "type": "uint256"
        },
        {
          "indexed": false,
          "internalType": "uint256",
          "name": "amount",
          "type": "uint256"
        }
      ],
      "name": "NewLoanRequest",
      "type": "event"
    },
    {
      "anonymous": false,
      "inputs": [
        {
          "indexed": true,
          "internalType": "address",
          "name": "from",
          "type": "address"
        },
        {
          "indexed": true,
          "internalType": "address",
          "name": "to",
          "type": "address"
        },
        {
          "indexed": false,
          "internalType": "uint256",
          "name": "value",
          "type": "uint256"
        }
      ],
      "name": "Transfer",
      "type": "event"
    },
    {
      "anonymous": false,
      "inputs": [
        {
          "indexed": true,
          "internalType": "address",
          "name": "poolProvider",
          "type": "address"
        },
        {
          "indexed": false,
          "internalType": "uint256",
          "name": "amount",
          "type": "uint256"
        },
        {
          "indexed": false,
          "internalType": "uint256",
          "name": "shares",
          "type": "uint256"
        }
      ],
      "name": "WithdrawalMade",
      "type": "event"
    },
    {
      "inputs": [
        {
          "internalType": "address",
          "name": "owner",
          "type": "address"
        },
        {
          "internalType": "address",
          "name": "spender",
          "type": "address"
        }
      ],
      "name": "allowance",
      "outputs": [
        {
          "internalType": "uint256",
          "name": "",
          "type": "uint256"
        }
      ],
      "stateMutability": "view",
      "type": "function"
    },
    {
      "inputs": [
        {
          "internalType": "address",
          "name": "spender",
          "type": "address"
        },
        {
          "internalType": "uint256",
          "name": "amount",
          "type": "uint256"
        }
      ],
      "name": "approve",
      "outputs": [
        {
          "internalType": "bool",
          "name": "",
          "type": "bool"
        }
      ],
      "stateMutability": "nonpayable",
      "type": "function"
    },
    {
      "inputs": [
        {
          "internalType": "uint256",
          "name": "_loanId",
          "type": "uint256"
        }
      ],
      "name": "approve",
      "outputs": [],
      "stateMutability": "nonpayable",
      "type": "function"
    },
    {
      "inputs": [
        {
          "internalType": "address",
          "name": "",
          "type": "address"
        }
      ],
      "name": "approvers",
      "outputs": [
        {
          "internalType": "uint256",
          "name": "balance",
          "type": "uint256"
        },
        {
          "internalType": "uint256",
          "name": "reputation",
          "type": "uint256"
        },
        {
          "internalType": "uint256",
          "name": "approvalLimit",
          "type": "uint256"
        },
        {
          "internalType": "uint256",
          "name": "currentlyApproved",
          "type": "uint256"
        }
      ],
      "stateMutability": "view",
      "type": "function"
    },
    {
      "inputs": [
        {
          "internalType": "uint256",
          "name": "",
          "type": "uint256"
        }
      ],
      "name": "bLoans",
      "outputs": [
        {
          "internalType": "uint256",
          "name": "",
          "type": "uint256"
        }
      ],
      "stateMutability": "view",
      "type": "function"
    },
    {
      "inputs": [
        {
          "internalType": "address",
          "name": "account",
          "type": "address"
        }
      ],
      "name": "balanceOf",
      "outputs": [
        {
          "internalType": "uint256",
          "name": "",
          "type": "uint256"
        }
      ],
      "stateMutability": "view",
      "type": "function"
    },
    {
      "inputs": [
        {
          "internalType": "address",
          "name": "",
          "type": "address"
        }
      ],
      "name": "borrowers",
      "outputs": [
        {
          "internalType": "uint256",
          "name": "borrowLimit",
          "type": "uint256"
        },
        {
          "internalType": "uint256",
          "name": "currentlyBorrowed",
          "type": "uint256"
        },
        {
          "internalType": "uint256",
          "name": "reputation",
          "type": "uint256"
        }
      ],
      "stateMutability": "view",
      "type": "function"
    },
    {
      "inputs": [
        {
          "components": [
            {
              "internalType": "address",
              "name": "borrower",
              "type": "address"
            },
            {
              "internalType": "uint256",
              "name": "principal",
              "type": "uint256"
            },
            {
              "internalType": "uint256",
              "name": "amountRepaid",
              "type": "uint256"
            },
            {
              "internalType": "address",
              "name": "approver",
              "type": "address"
            },
            {
              "internalType": "uint256",
              "name": "duration",
              "type": "uint256"
            },
            {
              "internalType": "uint256",
              "name": "repaymentTime",
              "type": "uint256"
            }
          ],
          "internalType": "struct Loan",
          "name": "_loan",
          "type": "tuple"
        }
      ],
      "name": "calcInterest",
      "outputs": [
        {
          "internalType": "uint256",
          "name": "",
          "type": "uint256"
        }
      ],
      "stateMutability": "view",
      "type": "function"
    },
    {
      "inputs": [
        {
          "internalType": "uint256",
          "name": "_loanId",
          "type": "uint256"
        }
      ],
      "name": "checkDefault",
      "outputs": [
        {
          "internalType": "bool",
          "name": "",
          "type": "bool"
        }
      ],
      "stateMutability": "view",
      "type": "function"
    },
    {
      "inputs": [
        {
          "internalType": "uint256",
          "name": "",
          "type": "uint256"
        }
      ],
      "name": "currentLoans",
      "outputs": [
        {
          "internalType": "uint256",
          "name": "",
          "type": "uint256"
        }
      ],
      "stateMutability": "view",
      "type": "function"
    },
    {
      "inputs": [],
      "name": "decimals",
      "outputs": [
        {
          "internalType": "uint8",
          "name": "",
          "type": "uint8"
        }
      ],
      "stateMutability": "view",
      "type": "function"
    },
    {
      "inputs": [
        {
          "internalType": "address",
          "name": "spender",
          "type": "address"
        },
        {
          "internalType": "uint256",
          "name": "subtractedValue",
          "type": "uint256"
        }
      ],
      "name": "decreaseAllowance",
      "outputs": [
        {
          "internalType": "bool",
          "name": "",
          "type": "bool"
        }
      ],
      "stateMutability": "nonpayable",
      "type": "function"
    },
    {
      "inputs": [
        {
          "internalType": "uint256",
          "name": "_amt",
          "type": "uint256"
        }
      ],
      "name": "deposit",
      "outputs": [],
      "stateMutability": "nonpayable",
      "type": "function"
    },
    {
      "inputs": [
        {
          "internalType": "address",
          "name": "_addr",
          "type": "address"
        }
      ],
      "name": "getApprovers",
      "outputs": [
        {
          "components": [
            {
              "internalType": "uint256",
              "name": "balance",
              "type": "uint256"
            },
            {
              "internalType": "uint256",
              "name": "reputation",
              "type": "uint256"
            },
            {
              "internalType": "uint256",
              "name": "approvalLimit",
              "type": "uint256"
            },
            {
              "internalType": "uint256",
              "name": "currentlyApproved",
              "type": "uint256"
            }
          ],
          "internalType": "struct Approver",
          "name": "",
          "type": "tuple"
        }
      ],
      "stateMutability": "view",
      "type": "function"
    },
    {
      "inputs": [],
      "name": "getBadLoans",
      "outputs": [
        {
          "internalType": "uint256[]",
          "name": "",
          "type": "uint256[]"
        }
      ],
      "stateMutability": "nonpayable",
      "type": "function"
    },
    {
      "inputs": [
        {
          "internalType": "address",
          "name": "_borrower",
          "type": "address"
        },
        {
          "internalType": "uint256",
          "name": "_index",
          "type": "uint256"
        }
      ],
      "name": "getBorrowerLoan",
      "outputs": [
        {
          "internalType": "uint256",
          "name": "",
          "type": "uint256"
        }
      ],
      "stateMutability": "view",
      "type": "function"
    },
    {
      "inputs": [
        {
          "internalType": "address",
          "name": "_addr",
          "type": "address"
        }
      ],
      "name": "getBorrowers",
      "outputs": [
        {
          "components": [
            {
              "internalType": "uint256",
              "name": "borrowLimit",
              "type": "uint256"
            },
            {
              "internalType": "uint256",
              "name": "currentlyBorrowed",
              "type": "uint256"
            },
            {
              "internalType": "uint256",
              "name": "reputation",
              "type": "uint256"
            },
            {
              "internalType": "uint256[]",
              "name": "loans",
              "type": "uint256[]"
            }
          ],
          "internalType": "struct Borrower",
          "name": "",
          "type": "tuple"
        }
      ],
      "stateMutability": "view",
      "type": "function"
    },
    {
      "inputs": [],
      "name": "getInitialBorrowLimit",
      "outputs": [
        {
          "internalType": "uint256",
          "name": "",
          "type": "uint256"
        }
      ],
      "stateMutability": "view",
      "type": "function"
    },
    {
      "inputs": [
        {
          "internalType": "uint256",
          "name": "_loanId",
          "type": "uint256"
        }
      ],
      "name": "getLoans",
      "outputs": [
        {
          "components": [
            {
              "internalType": "address",
              "name": "borrower",
              "type": "address"
            },
            {
              "internalType": "uint256",
              "name": "principal",
              "type": "uint256"
            },
            {
              "internalType": "uint256",
              "name": "amountRepaid",
              "type": "uint256"
            },
            {
              "internalType": "address",
              "name": "approver",
              "type": "address"
            },
            {
              "internalType": "uint256",
              "name": "duration",
              "type": "uint256"
            },
            {
              "internalType": "uint256",
              "name": "repaymentTime",
              "type": "uint256"
            }
          ],
          "internalType": "struct Loan",
          "name": "",
          "type": "tuple"
        }
      ],
      "stateMutability": "view",
      "type": "function"
    },
    {
      "inputs": [],
      "name": "getPoolReserves",
      "outputs": [
        {
          "internalType": "uint256",
          "name": "",
          "type": "uint256"
        }
      ],
      "stateMutability": "view",
      "type": "function"
    },
    {
      "inputs": [
        {
          "internalType": "uint256",
          "name": "_amt",
          "type": "uint256"
        }
      ],
      "name": "getPoolShare",
      "outputs": [
        {
          "internalType": "uint256",
          "name": "",
          "type": "uint256"
        }
      ],
      "stateMutability": "view",
      "type": "function"
    },
    {
      "inputs": [
        {
          "internalType": "address",
          "name": "_borrower",
          "type": "address"
        }
      ],
      "name": "getRepayAmount",
      "outputs": [
        {
          "internalType": "uint256",
          "name": "",
          "type": "uint256"
        }
      ],
      "stateMutability": "view",
      "type": "function"
    },
    {
      "inputs": [
        {
          "internalType": "address",
          "name": "spender",
          "type": "address"
        },
        {
          "internalType": "uint256",
          "name": "addedValue",
          "type": "uint256"
        }
      ],
      "name": "increaseAllowance",
      "outputs": [
        {
          "internalType": "bool",
          "name": "",
          "type": "bool"
        }
      ],
      "stateMutability": "nonpayable",
      "type": "function"
    },
    {
      "inputs": [
        {
          "internalType": "uint256",
          "name": "_lendingRate",
          "type": "uint256"
        },
        {
          "internalType": "uint256",
          "name": "_maxDuration",
          "type": "uint256"
        }
      ],
      "name": "initialize",
      "outputs": [],
      "stateMutability": "nonpayable",
      "type": "function"
    },
    {
      "inputs": [],
      "name": "lendingRateAPR",
      "outputs": [
        {
          "internalType": "uint256",
          "name": "",
          "type": "uint256"
        }
      ],
      "stateMutability": "view",
      "type": "function"
    },
    {
      "inputs": [
        {
          "internalType": "address",
          "name": "_bAddr",
          "type": "address"
        },
        {
          "internalType": "uint256",
          "name": "_loanId",
          "type": "uint256"
        }
      ],
      "name": "loanAlreadyExists",
      "outputs": [
        {
          "internalType": "bool",
          "name": "",
          "type": "bool"
        }
      ],
      "stateMutability": "view",
      "type": "function"
    },
    {
      "inputs": [
        {
          "internalType": "uint256",
          "name": "",
          "type": "uint256"
        }
      ],
      "name": "loans",
      "outputs": [
        {
          "internalType": "address",
          "name": "borrower",
          "type": "address"
        },
        {
          "internalType": "uint256",
          "name": "principal",
          "type": "uint256"
        },
        {
          "internalType": "uint256",
          "name": "amountRepaid",
          "type": "uint256"
        },
        {
          "internalType": "address",
          "name": "approver",
          "type": "address"
        },
        {
          "internalType": "uint256",
          "name": "duration",
          "type": "uint256"
        },
        {
          "internalType": "uint256",
          "name": "repaymentTime",
          "type": "uint256"
        }
      ],
      "stateMutability": "view",
      "type": "function"
    },
    {
      "inputs": [],
      "name": "maxLoanAmount",
      "outputs": [
        {
          "internalType": "uint256",
          "name": "",
          "type": "uint256"
        }
      ],
      "stateMutability": "view",
      "type": "function"
    },
    {
      "inputs": [],
      "name": "maxTimePeriod",
      "outputs": [
        {
          "internalType": "uint256",
          "name": "",
          "type": "uint256"
        }
      ],
      "stateMutability": "view",
      "type": "function"
    },
    {
      "inputs": [],
      "name": "minPoolAllocation",
      "outputs": [
        {
          "internalType": "uint256",
          "name": "",
          "type": "uint256"
        }
      ],
      "stateMutability": "view",
      "type": "function"
    },
    {
      "inputs": [],
      "name": "name",
      "outputs": [
        {
          "internalType": "string",
          "name": "",
          "type": "string"
        }
      ],
      "stateMutability": "view",
      "type": "function"
    },
    {
      "inputs": [],
      "name": "poolDeposits",
      "outputs": [
        {
          "internalType": "uint256",
          "name": "",
          "type": "uint256"
        }
      ],
      "stateMutability": "view",
      "type": "function"
    },
    {
      "inputs": [],
      "name": "poolToken",
      "outputs": [
        {
          "internalType": "contract ERC20",
          "name": "",
          "type": "address"
        }
      ],
      "stateMutability": "view",
      "type": "function"
    },
    {
      "inputs": [
        {
          "internalType": "uint256",
          "name": "_loanId",
          "type": "uint256"
        },
        {
          "internalType": "uint256",
          "name": "_amt",
          "type": "uint256"
        }
      ],
      "name": "repay",
      "outputs": [],
      "stateMutability": "nonpayable",
      "type": "function"
    },
    {
      "inputs": [
        {
          "internalType": "uint256",
          "name": "_amt",
          "type": "uint256"
        },
        {
          "internalType": "uint256",
          "name": "durationDays",
          "type": "uint256"
        }
      ],
      "name": "request",
      "outputs": [],
      "stateMutability": "nonpayable",
      "type": "function"
    },
    {
      "inputs": [
        {
          "internalType": "uint256",
          "name": "_lendingRateAPR",
          "type": "uint256"
        }
      ],
      "name": "setLendingRate",
      "outputs": [],
      "stateMutability": "nonpayable",
      "type": "function"
    },
    {
      "inputs": [],
      "name": "symbol",
      "outputs": [
        {
          "internalType": "string",
          "name": "",
          "type": "string"
        }
      ],
      "stateMutability": "view",
      "type": "function"
    },
    {
      "inputs": [],
      "name": "totalLoanValue",
      "outputs": [
        {
          "internalType": "uint256",
          "name": "",
          "type": "uint256"
        }
      ],
      "stateMutability": "view",
      "type": "function"
    },
    {
      "inputs": [],
      "name": "totalSupply",
      "outputs": [
        {
          "internalType": "uint256",
          "name": "",
          "type": "uint256"
        }
      ],
      "stateMutability": "view",
      "type": "function"
    },
    {
      "inputs": [
        {
          "internalType": "address",
          "name": "to",
          "type": "address"
        },
        {
          "internalType": "uint256",
          "name": "amount",
          "type": "uint256"
        }
      ],
      "name": "transfer",
      "outputs": [
        {
          "internalType": "bool",
          "name": "",
          "type": "bool"
        }
      ],
      "stateMutability": "nonpayable",
      "type": "function"
    },
    {
      "inputs": [
        {
          "internalType": "address",
          "name": "from",
          "type": "address"
        },
        {
          "internalType": "address",
          "name": "to",
          "type": "address"
        },
        {
          "internalType": "uint256",
          "name": "amount",
          "type": "uint256"
        }
      ],
      "name": "transferFrom",
      "outputs": [
        {
          "internalType": "bool",
          "name": "",
          "type": "bool"
        }
      ],
      "stateMutability": "nonpayable",
      "type": "function"
    },
    {
      "inputs": [
        {
          "internalType": "address",
          "name": "_aa",
          "type": "address"
        }
      ],
      "name": "updateApproverReputation",
      "outputs": [],
      "stateMutability": "nonpayable",
      "type": "function"
    },
    {
      "inputs": [
        {
          "internalType": "address",
          "name": "_ba",
          "type": "address"
        }
      ],
      "name": "updateBorrowerReputation",
      "outputs": [],
      "stateMutability": "nonpayable",
      "type": "function"
    },
    {
      "inputs": [
        {
          "internalType": "uint256",
          "name": "amount",
          "type": "uint256"
        }
      ],
      "name": "withdraw",
      "outputs": [],
      "stateMutability": "nonpayable",
      "type": "function"
    }
  ],
  "bytecode": {
    "object": "0x60806040523480156200001157600080fd5b5060405162002c7938038062002c798339810160408190526200003491620000db565b606e80546001600160a01b038088166001600160a01b031992831617909255606f805487841690831617905560708054928616929091169190911790556200007d818362000088565b505050505062000140565b60718290556007819055662386f26fc10000600855620000b56072620000b9602090811b62001e3c17901c565b5050565b80546001019055565b6001600160a01b0381168114620000d857600080fd5b50565b600080600080600060a08688031215620000f457600080fd5b85516200010181620000c2565b60208701519095506200011481620000c2565b60408701519094506200012781620000c2565b6060870151608090970151959894975095949392505050565b612b2980620001506000396000f3fe608060405234801561001057600080fd5b50600436106102745760003560e01c80639574af4811610151578063c713bf8c116100c3578063dd62ed3e11610087578063dd62ed3e1461064e578063dee5b5ef14610661578063e1ec3c6814610674578063e4a3011614610703578063eb02241414610716578063fe9d087e1461071e57600080fd5b8063c713bf8c146105ec578063cbdf382c146105ff578063d1a87f641461062a578063d8aed14514610633578063d93ba2c71461064657600080fd5b8063ad5f6bf011610115578063ad5f6bf01461054d578063b6b55f2514610562578063b759f95414610575578063b9306dda14610588578063bf5d50c41461059b578063c0e70e73146105e457600080fd5b80639574af48146104f857806395d89b411461050b5780639be5b2bd14610513578063a457c2d714610527578063a9059cbb1461053a57600080fd5b806339509351116101ea57806372f94365116101ae57806372f943651461045d578063759135a11461046657806382bf9251146104795780638bc802fb1461048c5780639146a7751461049f578063939c2a2b146104e557600080fd5b806339509351146103e557806342528738146103f85780634807b6cf1461040b5780634d6cbff41461042b57806370a082311461043457600080fd5b80631d9bc62e1161023c5780631d9bc62e146103895780632241285d1461039257806323b872dd1461039b5780632e1a7d4d146103ae578063313ce567146103c35780633202996b146103d257600080fd5b806306fdde0314610279578063095ea7b3146102975780630a144391146102ba5780630aed3ca11461030f57806318160ddd14610377575b600080fd5b610281610731565b60405161028e919061262e565b60405180910390f35b6102aa6102a536600461267d565b6107c3565b604051901515815260200161028e565b6102ef6102c83660046126a7565b60006020819052908152604090208054600182015460028301546003909301549192909184565b60408051948552602085019390935291830152606082015260800161028e565b61032261031d3660046126c2565b6107dd565b60405161028e919081516001600160a01b0390811682526020808401519083015260408084015190830152606080840151909116908201526080808301519082015260a0918201519181019190915260c00190565b603e545b60405190815260200161028e565b61037b60085481565b61037b60715481565b6102aa6103a93660046126db565b61088c565b6103c16103bc3660046126c2565b6108b2565b005b6040516012815260200161028e565b61037b6103e0366004612717565b610aa6565b6102aa6103f336600461267d565b610b62565b61037b6104063660046126c2565b610b84565b61041e6104193660046126a7565b610ba5565b60405161028e91906127e6565b61037b60055481565b61037b6104423660046126a7565b6001600160a01b03166000908152603c602052604090205490565b61037b60065481565b6102aa6104743660046126c2565b610c66565b61037b6104873660046126c2565b610cf9565b6103c161049a36600461281f565b610d09565b6104b26104ad3660046126a7565b610f72565b60405161028e91908151815260208083015190820152604080830151908201526060918201519181019190915260800190565b6103c16104f33660046126c2565b607155565b6103c16105063660046126a7565b610fe9565b610281611015565b61037b6105213660046126a7565b50600090565b6102aa61053536600461267d565b611024565b6102aa61054836600461267d565b6110aa565b6105556110b8565b60405161028e9190612841565b6103c16105703660046126c2565b611194565b6103c16105833660046126c2565b61132a565b6102aa61059636600461267d565b6116cf565b6105c96105a93660046126a7565b600160208190526000918252604090912080549181015460029091015483565b6040805193845260208401929092529082015260600161028e565b61037b6117c0565b61037b6105fa36600461267d565b61185f565b606e54610612906001600160a01b031681565b6040516001600160a01b03909116815260200161028e565b61037b60075481565b6103c161064136600461281f565b6118c9565b61037b611b29565b61037b61065c366004612854565b611c26565b6103c161066f3660046126a7565b611c51565b6106c56106823660046126c2565b60026020819052600091825260409091208054600182015492820154600383015460048401546005909401546001600160a01b0393841695949293909116919086565b604080516001600160a01b039788168152602081019690965285019390935293166060830152608082019290925260a081019190915260c00161028e565b6103c161071136600461281f565b611c81565b61037b611ca8565b61037b61072c3660046126c2565b611cf1565b6060603f805461074090612887565b80601f016020809104026020016040519081016040528092919081815260200182805461076c90612887565b80156107b95780601f1061078e576101008083540402835291602001916107b9565b820191906000526020600020905b81548152906001019060200180831161079c57829003601f168201915b5050505050905090565b6000336107d1818585611e45565b60019150505b92915050565b6108286040518060c0016040528060006001600160a01b03168152602001600081526020016000815260200160006001600160a01b0316815260200160008152602001600081525090565b50600090815260026020818152604092839020835160c08101855281546001600160a01b039081168252600183015493820193909352928101549383019390935260038301541660608201526004820154608082015260059091015460a082015290565b60003361089a858285611f6a565b6108a5858585611fe4565b60019150505b9392505050565b600081116109075760405162461bcd60e51b815260206004820152601c60248201527f4d757374207769746864726177206d6f7265207468616e207a65726f0000000060448201526064015b60405180910390fd5b606e546040516370a0823160e01b81523060048201526000916001600160a01b0316906370a0823190602401602060405180830381865afa158015610950573d6000803e3d6000fd5b505050506040513d601f19601f8201168201806040525081019061097491906128bb565b603e5461098190846128ea565b61098b9190612909565b3360009081526020819052604081206003810154815493945090926109b0919061292b565b9050838110156109f75760405162461bcd60e51b81526020600482015260126024820152714e6f7420656e6f7567682062616c616e636560701b60448201526064016108fe565b83826000016000828254610a0b919061292b565b90915550610a1a905033611c51565b610a2530338661218f565b50336000908152603c60205260409020548311610a4b57610a4633846122fc565b610a65565b336000818152603c6020526040902054610a6591906122fc565b604080518581526020810185905233917f2d4d49c3e017b8235c908cbaa83a2431a08f3b950712696ece2088964fd399f0910160405180910390a250505050565b600080610ac583608001518460a00151610ac0919061292b565b612428565b602084015190915073__$8103477d69fb98e53a0fc5d631f2d772d4$__906305e1bd8c90610af3908061292b565b6071546040516001600160e01b031960e085901b1681526004810192909252602482015260448101849052606401602060405180830381865af4158015610b3e573d6000803e3d6000fd5b505050506040513d601f19601f820116820180604052508101906108ab91906128bb565b6000336107d1818585610b758383611c26565b610b7f9190612942565b611e45565b60038181548110610b9457600080fd5b600091825260209091200154905081565b610bd06040518060800160405280600081526020016000815260200160008152602001606081525090565b6001600160a01b0382166000908152600160208181526040928390208351608081018552815481529281015483830152600281015483850152600381018054855181850281018501909652808652939491936060860193830182828015610c5657602002820191906000526020600020905b815481526020019060010190808311610c42575b5050505050815250509050919050565b6000818152600260208181526040808420815160c08101835281546001600160a01b039081168252600183015494820194909452938101549184019190915260038101549091166060830152600481015460808301526005015460a0820181905242118015610cdc575080604001518160200151115b15610cea5750600192915050565b50600092915050565b50919050565b60048181548110610b9457600080fd5b3360008311610d5a5760405162461bcd60e51b815260206004820152601a60248201527f4d75737420626f72726f77206d6f7265207468616e207a65726f00000000000060448201526064016108fe565b600082118015610d6c57506007548211155b610dd05760405162461bcd60e51b815260206004820152602f60248201527f4552524f523a20696e76616c69642074696d6520706572696f6420666f72207460448201526e1a19481b1bd85b881c995c5d595cdd608a1b60648201526084016108fe565b3360009081526001602052604081206003810154909103610df457610df433610fe9565b80546001820154610e059086612942565b10610e525760405162461bcd60e51b815260206004820152601c60248201527f476f696e67206f76657220796f757220626f72726f77206c696d69740000000060448201526064016108fe565b6000610e5d60725490565b90506040518060c00160405280336001600160a01b031681526020018681526020016000815260200160006001600160a01b03168152602001610e9f86612442565b8152600060209182018190528381526002808352604091829020845181546001600160a01b039182166001600160a01b0319918216178355948601516001830155928501519181019190915560608401516003820180549190931693169290921790556080820151600482015560a090910151600590910155610f26607280546001019055565b610f2f33610fe9565b604080518281526020810187905233917fc67abf520079310bcee1cfa50d430c50ae4a6ecba1849b43899611166b5e4c8291015b60405180910390a25050505050565b610f9d6040518060800160405280600081526020016000815260200160008152602001600081525090565b506001600160a01b031660009081526020818152604091829020825160808101845281548152600182015492810192909252600281015492820192909252600390910154606082015290565b6001600160a01b0316600090815260016020526040902060c86002820155683635c9adc5dea000009055565b60606040805461074090612887565b600033816110328286611c26565b9050838110156110925760405162461bcd60e51b815260206004820152602560248201527f45524332303a2064656372656173656420616c6c6f77616e63652062656c6f77604482015264207a65726f60d81b60648201526084016108fe565b61109f8286868403611e45565b506001949350505050565b6000336107d1818585611fe4565b606060005b600354811015611139576110ed600382815481106110dd576110dd61295a565b9060005260206000200154610c66565b15611127576004600382815481106111075761110761295a565b600091825260208083209091015483546001810185559383529120909101555b8061113181612970565b9150506110bd565b506000600480548060200260200160405190810160405280929190818152602001828054801561118857602002820191906000526020600020905b815481526020019060010190808311611174575b50939695505050505050565b600081116111e45760405162461bcd60e51b815260206004820152601b60248201527f4d757374206465706f736974206d6f7265207468616e207a65726f000000000060448201526064016108fe565b60006111f133308461218f565b9050806112405760405162461bcd60e51b815260206004820152601e60248201527f4661696c656420746f207472616e7366657220666f72206465706f736974000060448201526064016108fe565b6070546040516024810184905260009182916001600160a01b039091169060440160408051601f198184030181529181526020820180516001600160e01b0316630b615fdb60e11b179052516112969190612989565b600060405180830381855af49150503d80600081146112d1576040519150601f19603f3d011682016040523d82523d6000602084013e6112d6565b606091505b509150915060006112e685611cf1565b90506112f23382612465565b604080518681526020810183905233917f0b05f0d1cd0819f155b8a61f60baf7767c1ee49d04aeaab701df236140eb93f99101610f63565b3360009081526020819052604090205461137c5760405162461bcd60e51b815260206004820152601360248201527226bab9ba1031329030b71030b8383937bb32b960691b60448201526064016108fe565b600081815260026020526040902060018101546113ca5760405162461bcd60e51b815260206004820152600c60248201526b24b73b30b634b2103637b0b760a11b60448201526064016108fe565b60038101546001600160a01b03161561141d5760405162461bcd60e51b8152602060048201526015602482015274131bd85b88185b1c9958591e48185c1c1c9bdd9959605a1b60448201526064016108fe565b33600090815260208190526040902060030154600182015461143f9190612942565b336000908152602081905260409020600201541161149f5760405162461bcd60e51b815260206004820152601e60248201527f476f696e67206f76657220796f757220617070726f76616c206c696d6974000060448201526064016108fe565b80546001600160a01b0316600090815260016020526040902060028101546115025760405162461bcd60e51b8152602060048201526016602482015275109bdc9c9bddd95c88191bd95cdb89dd08195e1a5cdd60521b60448201526064016108fe565b8154611517906001600160a01b0316846116cf565b1561155a5760405162461bcd60e51b81526020600482015260136024820152724c6f616e20616c72656164792065786973747360681b60448201526064016108fe565b600381018054600181810183556000928352602083209091018590558381015490830180549192909161158e908490612942565b90915550506003820180546001600160a01b0319163317905560048201546115b69042612942565b600583015560038054600181810183557fc2575a0e9e593c00f959f8c92f12db2869c3395a3b0502d05e2516446f71f85b909101859055830154336000908152602081905260408120909201805491929091611613908490612942565b9091555050815460018301546000916116379130916001600160a01b03169061218f565b9050806116865760405162461bcd60e51b815260206004820152601d60248201527f4661696c656420746f207472616e7366657220666f7220626f72726f7700000060448201526064016108fe565b6001830154604080518681526020810192909252339182917f153dc5769b21c83a84e1d7b9c780392707982692fa5a6f78dbd841cdb7497edb910160405180910390a350505050565b6001600160a01b03821660009081526001602081815260408084208151608081018352815481529381015484840152600281015484830152600381018054835181860281018601909452808452869594929360608601939092919083018282801561175957602002820191906000526020600020905b815481526020019060010190808311611745575b505050505081525050905060005b8160600151518110156117b557838260600151828151811061178b5761178b61295a565b6020026020010151036117a3576001925050506107d7565b806117ad81612970565b915050611767565b506000949350505050565b600073__$8103477d69fb98e53a0fc5d631f2d772d4$__63aa9a09126117e4611ca8565b6008546040516001600160e01b031960e085901b16815260048101929092526024820152670de0b6b3a76400006044820152606401602060405180830381865af4158015611836573d6000803e3d6000fd5b505050506040513d601f19601f8201168201806040525081019061185a91906128bb565b905090565b6001600160a01b0382166000908152600160205260408120600301548210611889575060006107d7565b6001600160a01b03831660009081526001602052604090206003018054839081106118b6576118b661295a565b9060005260206000200154905092915050565b600081116119195760405162461bcd60e51b815260206004820152601a60248201527f4d75737420626f72726f77206d6f7265207468616e207a65726f00000000000060448201526064016108fe565b60008281526002602090815260408083203384526001835281842060038201546001600160a01b0316855292849052922061195385610c66565b156119965760405162461bcd60e51b81526020600482015260136024820152725061737365642074686520646561646c696e6560681b60448201526064016108fe565b81600101548411156119ea5760405162461bcd60e51b815260206004820152601d60248201527f43616e2774207265706179206d6f7265207468616e20796f75206f776500000060448201526064016108fe565b6040805160c08101825284546001600160a01b039081168252600186015460208301526002860154928201929092526003850154909116606082015260048401546080820152600584015460a0820152600090611a4690610aa6565b611a509086612942565b90506000611a5f30338861218f565b905080611aae5760405162461bcd60e51b815260206004820152601c60248201527f4661696c656420746f207472616e7366657220666f722072657061790000000060448201526064016108fe565b600060018601558454611acb9088906001600160a01b0316612526565b85846001016000828254611adf919061292b565b9250508190555085836003016000828254611afa919061292b565b90915550611b09905033610fe9565b6003850154611b20906001600160a01b0316611c51565b50505050505050565b600080805b600354811015610cf35760006002600060038481548110611b5157611b5161295a565b600091825260208083209091015483528281019390935260409182019020815160c08101835281546001600160a01b039081168252600183015494820194909452600282015492810192909252600381015490921660608201526004820154608082015260059091015460a0820181905290915042108015611bda575080602001518160400151105b15611c13578060400151611bed82610aa6565b8260200151611bfc9190612942565b611c06919061292b565b611c109084612942565b92505b5080611c1e81612970565b915050611b2e565b6001600160a01b039182166000908152603d6020908152604080832093909416825291909152205490565b6001600160a01b0316600090815260208190526040902060c86001820155683635c9adc5dea00000600290910155565b60718290556007819055662386f26fc10000600855611ca4607280546001019055565b5050565b606e546040516370a0823160e01b81523060048201526000916001600160a01b0316906370a0823190602401602060405180830381865afa158015611836573d6000803e3d6000fd5b600080611cfd603e5490565b905080600003611da957606e60009054906101000a90046001600160a01b03166001600160a01b031663313ce5676040518163ffffffff1660e01b8152600401602060405180830381865afa158015611d5a573d6000803e3d6000fd5b505050506040513d601f19601f82011682018060405250810190611d7e91906129a5565b611d8990600a612aac565b611d956012600a612aac565b611d9f90856128ea565b6108ab9190612909565b82611db2611b29565b606e546040516370a0823160e01b81523060048201526001600160a01b03909116906370a0823190602401602060405180830381865afa158015611dfa573d6000803e3d6000fd5b505050506040513d601f19601f82011682018060405250810190611e1e91906128bb565b611e289190612942565b611e32919061292b565b611d9f82856128ea565b80546001019055565b6001600160a01b038316611ea75760405162461bcd60e51b8152602060048201526024808201527f45524332303a20617070726f76652066726f6d20746865207a65726f206164646044820152637265737360e01b60648201526084016108fe565b6001600160a01b038216611f085760405162461bcd60e51b815260206004820152602260248201527f45524332303a20617070726f766520746f20746865207a65726f206164647265604482015261737360f01b60648201526084016108fe565b6001600160a01b038381166000818152603d602090815260408083209487168084529482529182902085905590518481527f8c5be1e5ebec7d5bd14f71427d1e84f3dd0314c0f7b2291e5b200ac8c7c3b92591015b60405180910390a3505050565b6000611f768484611c26565b90506000198114611fde5781811015611fd15760405162461bcd60e51b815260206004820152601d60248201527f45524332303a20696e73756666696369656e7420616c6c6f77616e636500000060448201526064016108fe565b611fde8484848403611e45565b50505050565b6001600160a01b0383166120485760405162461bcd60e51b815260206004820152602560248201527f45524332303a207472616e736665722066726f6d20746865207a65726f206164604482015264647265737360d81b60648201526084016108fe565b6001600160a01b0382166120aa5760405162461bcd60e51b815260206004820152602360248201527f45524332303a207472616e7366657220746f20746865207a65726f206164647260448201526265737360e81b60648201526084016108fe565b6001600160a01b0383166000908152603c6020526040902054818110156121225760405162461bcd60e51b815260206004820152602660248201527f45524332303a207472616e7366657220616d6f756e7420657863656564732062604482015265616c616e636560d01b60648201526084016108fe565b6001600160a01b038085166000818152603c602052604080822086860390559286168082529083902080548601905591517fddf252ad1be2c89b69c2b068fc378daa952ba7f163c4a11628f55a4df523b3ef906121829086815260200190565b60405180910390a3611fde565b60006001600160a01b0383166121e75760405162461bcd60e51b815260206004820152601a60248201527f43616e27742073656e6420746f207a65726f206164647265737300000000000060448201526064016108fe565b306001600160a01b0385160361227557606e5460405163a9059cbb60e01b81526001600160a01b038581166004830152602482018590529091169063a9059cbb906044016020604051808303816000875af115801561224a573d6000803e3d6000fd5b505050506040513d601f19601f8201168201806040525081019061226e9190612abb565b90506108ab565b606e546040516323b872dd60e01b81526001600160a01b038681166004830152858116602483015260448201859052909116906323b872dd906064016020604051808303816000875af11580156122d0573d6000803e3d6000fd5b505050506040513d601f19601f820116820180604052508101906122f49190612abb565b949350505050565b6001600160a01b03821661235c5760405162461bcd60e51b815260206004820152602160248201527f45524332303a206275726e2066726f6d20746865207a65726f206164647265736044820152607360f81b60648201526084016108fe565b6001600160a01b0382166000908152603c6020526040902054818110156123d05760405162461bcd60e51b815260206004820152602260248201527f45524332303a206275726e20616d6f756e7420657863656564732062616c616e604482015261636560f01b60648201526084016108fe565b6001600160a01b0383166000818152603c602090815260408083208686039055603e80548790039055518581529192917fddf252ad1be2c89b69c2b068fc378daa952ba7f163c4a11628f55a4df523b3ef9101611f5d565b600062015180612438834261292b565b6107d79190612909565b600061244f8260186128ea565b61245a90603c6128ea565b6107d790603c6128ea565b6001600160a01b0382166124bb5760405162461bcd60e51b815260206004820152601f60248201527f45524332303a206d696e7420746f20746865207a65726f20616464726573730060448201526064016108fe565b80603e60008282546124cd9190612942565b90915550506001600160a01b0382166000818152603c60209081526040808320805486019055518481527fddf252ad1be2c89b69c2b068fc378daa952ba7f163c4a11628f55a4df523b3ef910160405180910390a35050565b6001600160a01b038116600090815260016020526040812060030190805b825481101561258a57848382815481106125605761256061295a565b9060005260206000200154036125785780915061258a565b8061258281612970565b915050612544565b508154829061259b9060019061292b565b815481106125ab576125ab61295a565b90600052602060002001548282815481106125c8576125c861295a565b9060005260206000200181905550818054806125e6576125e6612add565b6001900381819060005260206000200160009055905550505050565b60005b8381101561261d578181015183820152602001612605565b83811115611fde5750506000910152565b602081526000825180602084015261264d816040850160208701612602565b601f01601f19169190910160400192915050565b80356001600160a01b038116811461267857600080fd5b919050565b6000806040838503121561269057600080fd5b61269983612661565b946020939093013593505050565b6000602082840312156126b957600080fd5b6108ab82612661565b6000602082840312156126d457600080fd5b5035919050565b6000806000606084860312156126f057600080fd5b6126f984612661565b925061270760208501612661565b9150604084013590509250925092565b600060c0828403121561272957600080fd5b60405160c0810181811067ffffffffffffffff8211171561275a57634e487b7160e01b600052604160045260246000fd5b60405261276683612661565b8152602083013560208201526040830135604082015261278860608401612661565b60608201526080830135608082015260a083013560a08201528091505092915050565b600081518084526020808501945080840160005b838110156127db578151875295820195908201906001016127bf565b509495945050505050565b60208152815160208201526020820151604082015260408201516060820152600060608301516080808401526122f460a08401826127ab565b6000806040838503121561283257600080fd5b50508035926020909101359150565b6020815260006108ab60208301846127ab565b6000806040838503121561286757600080fd5b61287083612661565b915061287e60208401612661565b90509250929050565b600181811c9082168061289b57607f821691505b602082108103610cf357634e487b7160e01b600052602260045260246000fd5b6000602082840312156128cd57600080fd5b5051919050565b634e487b7160e01b600052601160045260246000fd5b6000816000190483118215151615612904576129046128d4565b500290565b60008261292657634e487b7160e01b600052601260045260246000fd5b500490565b60008282101561293d5761293d6128d4565b500390565b60008219821115612955576129556128d4565b500190565b634e487b7160e01b600052603260045260246000fd5b600060018201612982576129826128d4565b5060010190565b6000825161299b818460208701612602565b9190910192915050565b6000602082840312156129b757600080fd5b815160ff811681146108ab57600080fd5b600181815b80851115612a035781600019048211156129e9576129e96128d4565b808516156129f657918102915b93841c93908002906129cd565b509250929050565b600082612a1a575060016107d7565b81612a27575060006107d7565b8160018114612a3d5760028114612a4757612a63565b60019150506107d7565b60ff841115612a5857612a586128d4565b50506001821b6107d7565b5060208310610133831016604e8410600b8410161715612a86575081810a6107d7565b612a9083836129c8565b8060001904821115612aa457612aa46128d4565b029392505050565b60006108ab60ff841683612a0b565b600060208284031215612acd57600080fd5b815180151581146108ab57600080fd5b634e487b7160e01b600052603160045260246000fdfea264697066735822122074471000be7cc40692d58e9f9415fcfc7c7befd182b592805a95e4b0afa53d9c64736f6c634300080f0033",
    "linkReferences": {
      "src/helpers/Math.sol": {
        "Math": [
          {
            "start": 3103,
            "length": 20
          },
          {
            "start": 6420,
            "length": 20
          }
        ]
      }
    }
  },
  "methodIdentifiers": {
    "allowance(address,address)": "dd62ed3e",
    "approve(address,uint256)": "095ea7b3",
    "approve(uint256)": "b759f954",
    "approvers(address)": "0a144391",
    "bLoans(uint256)": "82bf9251",
    "balanceOf(address)": "70a08231",
    "borrowers(address)": "bf5d50c4",
    "calcInterest((address,uint256,uint256,address,uint256,uint256))": "3202996b",
    "checkDefault(uint256)": "759135a1",
    "currentLoans(uint256)": "42528738",
    "decimals()": "313ce567",
    "decreaseAllowance(address,uint256)": "a457c2d7",
    "deposit(uint256)": "b6b55f25",
    "getApprovers(address)": "9146a775",
    "getBadLoans()": "ad5f6bf0",
    "getBorrowerLoan(address,uint256)": "c713bf8c",
    "getBorrowers(address)": "4807b6cf",
    "getInitialBorrowLimit()": "c0e70e73",
    "getLoans(uint256)": "0aed3ca1",
    "getPoolReserves()": "eb022414",
    "getPoolShare(uint256)": "fe9d087e",
    "getRepayAmount(address)": "9be5b2bd",
    "increaseAllowance(address,uint256)": "39509351",
    "initialize(uint256,uint256)": "e4a30116",
    "lendingRateAPR()": "2241285d",
    "loanAlreadyExists(address,uint256)": "b9306dda",
    "loans(uint256)": "e1ec3c68",
    "maxLoanAmount()": "72f94365",
    "maxTimePeriod()": "d1a87f64",
    "minPoolAllocation()": "1d9bc62e",
    "name()": "06fdde03",
    "poolDeposits()": "4d6cbff4",
    "poolToken()": "cbdf382c",
    "repay(uint256,uint256)": "d8aed145",
    "request(uint256,uint256)": "8bc802fb",
    "setLendingRate(uint256)": "939c2a2b",
    "symbol()": "95d89b41",
    "totalLoanValue()": "d93ba2c7",
    "totalSupply()": "18160ddd",
    "transfer(address,uint256)": "a9059cbb",
    "transferFrom(address,address,uint256)": "23b872dd",
    "updateApproverReputation(address)": "dee5b5ef",
    "updateBorrowerReputation(address)": "9574af48",
    "withdraw(uint256)": "2e1a7d4d"
  },
  "id": 32
}