{
  "abi": [
    {
      "inputs": [
        {
          "internalType": "contract ERC20",
          "name": "_poolToken",
          "type": "address"
        },
        {
          "internalType": "address",
          "name": "_phAddr",
          "type": "address"
        },
        {
          "internalType": "uint256",
          "name": "_maxDuration",
          "type": "uint256"
        },
        {
          "internalType": "uint256",
          "name": "_lendingRate",
          "type": "uint256"
        }
      ],
      "stateMutability": "nonpayable",
      "type": "constructor"
    },
    {
      "anonymous": false,
      "inputs": [
        {
          "indexed": true,
          "internalType": "address",
          "name": "owner",
          "type": "address"
        },
        {
          "indexed": true,
          "internalType": "address",
          "name": "spender",
          "type": "address"
        },
        {
          "indexed": false,
          "internalType": "uint256",
          "name": "value",
          "type": "uint256"
        }
      ],
      "name": "Approval",
      "type": "event"
    },
    {
      "anonymous": false,
      "inputs": [
        {
          "indexed": true,
          "internalType": "address",
          "name": "poolProvider",
          "type": "address"
        },
        {
          "indexed": false,
          "internalType": "uint256",
          "name": "amount",
          "type": "uint256"
        },
        {
          "indexed": false,
          "internalType": "uint256",
          "name": "shares",
          "type": "uint256"
        }
      ],
      "name": "DepositMade",
      "type": "event"
    },
    {
      "anonymous": false,
      "inputs": [
        {
          "indexed": false,
          "internalType": "uint8",
          "name": "version",
          "type": "uint8"
        }
      ],
      "name": "Initialized",
      "type": "event"
    },
    {
      "anonymous": false,
      "inputs": [
        {
          "indexed": true,
          "internalType": "address",
          "name": "approver",
          "type": "address"
        },
        {
          "indexed": true,
          "internalType": "address",
          "name": "borrower",
          "type": "address"
        },
        {
          "indexed": false,
          "internalType": "uint256",
          "name": "loanId",
          "type": "uint256"
        },
        {
          "indexed": false,
          "internalType": "uint256",
          "name": "amount",
          "type": "uint256"
        }
      ],
      "name": "LoanApproved",
      "type": "event"
    },
    {
      "anonymous": false,
      "inputs": [
        {
          "indexed": true,
          "internalType": "address",
          "name": "borrower",
          "type": "address"
        },
        {
          "indexed": false,
          "internalType": "uint256",
          "name": "loanId",
          "type": "uint256"
        },
        {
          "indexed": false,
          "internalType": "uint256",
          "name": "amount",
          "type": "uint256"
        }
      ],
      "name": "NewLoanRequest",
      "type": "event"
    },
    {
      "anonymous": false,
      "inputs": [
        {
          "indexed": true,
          "internalType": "address",
          "name": "from",
          "type": "address"
        },
        {
          "indexed": true,
          "internalType": "address",
          "name": "to",
          "type": "address"
        },
        {
          "indexed": false,
          "internalType": "uint256",
          "name": "value",
          "type": "uint256"
        }
      ],
      "name": "Transfer",
      "type": "event"
    },
    {
      "anonymous": false,
      "inputs": [
        {
          "indexed": true,
          "internalType": "address",
          "name": "poolProvider",
          "type": "address"
        },
        {
          "indexed": false,
          "internalType": "uint256",
          "name": "amount",
          "type": "uint256"
        },
        {
          "indexed": false,
          "internalType": "uint256",
          "name": "shares",
          "type": "uint256"
        }
      ],
      "name": "WithdrawalMade",
      "type": "event"
    },
    {
      "inputs": [
        {
          "internalType": "address",
          "name": "owner",
          "type": "address"
        },
        {
          "internalType": "address",
          "name": "spender",
          "type": "address"
        }
      ],
      "name": "allowance",
      "outputs": [
        {
          "internalType": "uint256",
          "name": "",
          "type": "uint256"
        }
      ],
      "stateMutability": "view",
      "type": "function"
    },
    {
      "inputs": [
        {
          "internalType": "address",
          "name": "spender",
          "type": "address"
        },
        {
          "internalType": "uint256",
          "name": "amount",
          "type": "uint256"
        }
      ],
      "name": "approve",
      "outputs": [
        {
          "internalType": "bool",
          "name": "",
          "type": "bool"
        }
      ],
      "stateMutability": "nonpayable",
      "type": "function"
    },
    {
      "inputs": [
        {
          "internalType": "uint256",
          "name": "_loanId",
          "type": "uint256"
        }
      ],
      "name": "approve",
      "outputs": [],
      "stateMutability": "nonpayable",
      "type": "function"
    },
    {
      "inputs": [
        {
          "internalType": "address",
          "name": "",
          "type": "address"
        }
      ],
      "name": "approvers",
      "outputs": [
        {
          "internalType": "uint256",
          "name": "balance",
          "type": "uint256"
        },
        {
          "internalType": "uint256",
          "name": "reputation",
          "type": "uint256"
        },
        {
          "internalType": "uint256",
          "name": "approvalLimit",
          "type": "uint256"
        },
        {
          "internalType": "uint256",
          "name": "currentlyApproved",
          "type": "uint256"
        }
      ],
      "stateMutability": "view",
      "type": "function"
    },
    {
      "inputs": [
        {
          "internalType": "uint256",
          "name": "",
          "type": "uint256"
        }
      ],
      "name": "bLoans",
      "outputs": [
        {
          "internalType": "uint256",
          "name": "",
          "type": "uint256"
        }
      ],
      "stateMutability": "view",
      "type": "function"
    },
    {
      "inputs": [
        {
          "internalType": "address",
          "name": "account",
          "type": "address"
        }
      ],
      "name": "balanceOf",
      "outputs": [
        {
          "internalType": "uint256",
          "name": "",
          "type": "uint256"
        }
      ],
      "stateMutability": "view",
      "type": "function"
    },
    {
      "inputs": [
        {
          "internalType": "address",
          "name": "",
          "type": "address"
        }
      ],
      "name": "borrowers",
      "outputs": [
        {
          "internalType": "uint256",
          "name": "borrowLimit",
          "type": "uint256"
        },
        {
          "internalType": "uint256",
          "name": "currentlyBorrowed",
          "type": "uint256"
        },
        {
          "internalType": "uint256",
          "name": "reputation",
          "type": "uint256"
        }
      ],
      "stateMutability": "view",
      "type": "function"
    },
    {
      "inputs": [
        {
          "components": [
            {
              "internalType": "address",
              "name": "borrower",
              "type": "address"
            },
            {
              "internalType": "uint256",
              "name": "principal",
              "type": "uint256"
            },
            {
              "internalType": "uint256",
              "name": "amountRepaid",
              "type": "uint256"
            },
            {
              "internalType": "address",
              "name": "approver",
              "type": "address"
            },
            {
              "internalType": "uint256",
              "name": "duration",
              "type": "uint256"
            },
            {
              "internalType": "uint256",
              "name": "repaymentTime",
              "type": "uint256"
            }
          ],
          "internalType": "struct Loan",
          "name": "_loan",
          "type": "tuple"
        }
      ],
      "name": "calcInterest",
      "outputs": [
        {
          "internalType": "uint256",
          "name": "",
          "type": "uint256"
        }
      ],
      "stateMutability": "view",
      "type": "function"
    },
    {
      "inputs": [
        {
          "internalType": "uint256",
          "name": "_loanId",
          "type": "uint256"
        }
      ],
      "name": "checkDefault",
      "outputs": [
        {
          "internalType": "bool",
          "name": "",
          "type": "bool"
        }
      ],
      "stateMutability": "view",
      "type": "function"
    },
    {
      "inputs": [
        {
          "internalType": "uint256",
          "name": "",
          "type": "uint256"
        }
      ],
      "name": "currentLoans",
      "outputs": [
        {
          "internalType": "uint256",
          "name": "",
          "type": "uint256"
        }
      ],
      "stateMutability": "view",
      "type": "function"
    },
    {
      "inputs": [],
      "name": "decimals",
      "outputs": [
        {
          "internalType": "uint8",
          "name": "",
          "type": "uint8"
        }
      ],
      "stateMutability": "view",
      "type": "function"
    },
    {
      "inputs": [
        {
          "internalType": "address",
          "name": "spender",
          "type": "address"
        },
        {
          "internalType": "uint256",
          "name": "subtractedValue",
          "type": "uint256"
        }
      ],
      "name": "decreaseAllowance",
      "outputs": [
        {
          "internalType": "bool",
          "name": "",
          "type": "bool"
        }
      ],
      "stateMutability": "nonpayable",
      "type": "function"
    },
    {
      "inputs": [
        {
          "internalType": "uint256",
          "name": "_amt",
          "type": "uint256"
        }
      ],
      "name": "deposit",
      "outputs": [],
      "stateMutability": "nonpayable",
      "type": "function"
    },
    {
      "inputs": [
        {
          "internalType": "uint256",
          "name": "_reputation",
          "type": "uint256"
        }
      ],
      "name": "getApprovalLimit",
      "outputs": [
        {
          "internalType": "uint256",
          "name": "",
          "type": "uint256"
        }
      ],
      "stateMutability": "view",
      "type": "function"
    },
    {
      "inputs": [
        {
          "internalType": "address",
          "name": "_addr",
          "type": "address"
        }
      ],
      "name": "getApprovers",
      "outputs": [
        {
          "components": [
            {
              "internalType": "uint256",
              "name": "balance",
              "type": "uint256"
            },
            {
              "internalType": "uint256",
              "name": "reputation",
              "type": "uint256"
            },
            {
              "internalType": "uint256",
              "name": "approvalLimit",
              "type": "uint256"
            },
            {
              "internalType": "uint256",
              "name": "currentlyApproved",
              "type": "uint256"
            }
          ],
          "internalType": "struct Approver",
          "name": "",
          "type": "tuple"
        }
      ],
      "stateMutability": "view",
      "type": "function"
    },
    {
      "inputs": [],
      "name": "getBadLoans",
      "outputs": [
        {
          "internalType": "uint256[]",
          "name": "",
          "type": "uint256[]"
        }
      ],
      "stateMutability": "nonpayable",
      "type": "function"
    },
    {
      "inputs": [
        {
          "internalType": "uint256",
          "name": "_reputation",
          "type": "uint256"
        }
      ],
      "name": "getBorrowLimit",
      "outputs": [
        {
          "internalType": "uint256",
          "name": "",
          "type": "uint256"
        }
      ],
      "stateMutability": "view",
      "type": "function"
    },
    {
      "inputs": [
        {
          "internalType": "address",
          "name": "_borrower",
          "type": "address"
        },
        {
          "internalType": "uint256",
          "name": "_index",
          "type": "uint256"
        }
      ],
      "name": "getBorrowerLoan",
      "outputs": [
        {
          "internalType": "uint256",
          "name": "",
          "type": "uint256"
        }
      ],
      "stateMutability": "view",
      "type": "function"
    },
    {
      "inputs": [
        {
          "internalType": "address",
          "name": "_addr",
          "type": "address"
        }
      ],
      "name": "getBorrowers",
      "outputs": [
        {
          "components": [
            {
              "internalType": "uint256",
              "name": "borrowLimit",
              "type": "uint256"
            },
            {
              "internalType": "uint256",
              "name": "currentlyBorrowed",
              "type": "uint256"
            },
            {
              "internalType": "uint256",
              "name": "reputation",
              "type": "uint256"
            },
            {
              "internalType": "uint256[]",
              "name": "loans",
              "type": "uint256[]"
            }
          ],
          "internalType": "struct Borrower",
          "name": "",
          "type": "tuple"
        }
      ],
      "stateMutability": "view",
      "type": "function"
    },
    {
      "inputs": [],
      "name": "getInitialBorrowLimit",
      "outputs": [
        {
          "internalType": "uint256",
          "name": "",
          "type": "uint256"
        }
      ],
      "stateMutability": "view",
      "type": "function"
    },
    {
      "inputs": [
        {
          "internalType": "uint256",
          "name": "_loanId",
          "type": "uint256"
        }
      ],
      "name": "getLoans",
      "outputs": [
        {
          "components": [
            {
              "internalType": "address",
              "name": "borrower",
              "type": "address"
            },
            {
              "internalType": "uint256",
              "name": "principal",
              "type": "uint256"
            },
            {
              "internalType": "uint256",
              "name": "amountRepaid",
              "type": "uint256"
            },
            {
              "internalType": "address",
              "name": "approver",
              "type": "address"
            },
            {
              "internalType": "uint256",
              "name": "duration",
              "type": "uint256"
            },
            {
              "internalType": "uint256",
              "name": "repaymentTime",
              "type": "uint256"
            }
          ],
          "internalType": "struct Loan",
          "name": "",
          "type": "tuple"
        }
      ],
      "stateMutability": "view",
      "type": "function"
    },
    {
      "inputs": [],
      "name": "getPoolReserves",
      "outputs": [
        {
          "internalType": "uint256",
          "name": "",
          "type": "uint256"
        }
      ],
      "stateMutability": "view",
      "type": "function"
    },
    {
      "inputs": [
        {
          "internalType": "uint256",
          "name": "_amt",
          "type": "uint256"
        }
      ],
      "name": "getPoolShare",
      "outputs": [
        {
          "internalType": "uint256",
          "name": "",
          "type": "uint256"
        }
      ],
      "stateMutability": "view",
      "type": "function"
    },
    {
      "inputs": [
        {
          "internalType": "address",
          "name": "_borrower",
          "type": "address"
        }
      ],
      "name": "getRepayAmount",
      "outputs": [
        {
          "internalType": "uint256",
          "name": "",
          "type": "uint256"
        }
      ],
      "stateMutability": "view",
      "type": "function"
    },
    {
      "inputs": [],
      "name": "getReputation",
      "outputs": [
        {
          "internalType": "uint256",
          "name": "",
          "type": "uint256"
        }
      ],
      "stateMutability": "view",
      "type": "function"
    },
    {
      "inputs": [
        {
          "internalType": "address",
          "name": "spender",
          "type": "address"
        },
        {
          "internalType": "uint256",
          "name": "addedValue",
          "type": "uint256"
        }
      ],
      "name": "increaseAllowance",
      "outputs": [
        {
          "internalType": "bool",
          "name": "",
          "type": "bool"
        }
      ],
      "stateMutability": "nonpayable",
      "type": "function"
    },
    {
      "inputs": [
        {
          "internalType": "uint256",
          "name": "_lendingRate",
          "type": "uint256"
        },
        {
          "internalType": "uint256",
          "name": "_maxDuration",
          "type": "uint256"
        }
      ],
      "name": "initialize",
      "outputs": [],
      "stateMutability": "nonpayable",
      "type": "function"
    },
    {
      "inputs": [],
      "name": "lendingRateAPR",
      "outputs": [
        {
          "internalType": "uint256",
          "name": "",
          "type": "uint256"
        }
      ],
      "stateMutability": "view",
      "type": "function"
    },
    {
      "inputs": [
        {
          "internalType": "address",
          "name": "_bAddr",
          "type": "address"
        },
        {
          "internalType": "uint256",
          "name": "_loanId",
          "type": "uint256"
        }
      ],
      "name": "loanAlreadyExists",
      "outputs": [
        {
          "internalType": "bool",
          "name": "",
          "type": "bool"
        }
      ],
      "stateMutability": "view",
      "type": "function"
    },
    {
      "inputs": [
        {
          "internalType": "uint256",
          "name": "",
          "type": "uint256"
        }
      ],
      "name": "loans",
      "outputs": [
        {
          "internalType": "address",
          "name": "borrower",
          "type": "address"
        },
        {
          "internalType": "uint256",
          "name": "principal",
          "type": "uint256"
        },
        {
          "internalType": "uint256",
          "name": "amountRepaid",
          "type": "uint256"
        },
        {
          "internalType": "address",
          "name": "approver",
          "type": "address"
        },
        {
          "internalType": "uint256",
          "name": "duration",
          "type": "uint256"
        },
        {
          "internalType": "uint256",
          "name": "repaymentTime",
          "type": "uint256"
        }
      ],
      "stateMutability": "view",
      "type": "function"
    },
    {
      "inputs": [],
      "name": "maxLoanAmount",
      "outputs": [
        {
          "internalType": "uint256",
          "name": "",
          "type": "uint256"
        }
      ],
      "stateMutability": "view",
      "type": "function"
    },
    {
      "inputs": [],
      "name": "maxTimePeriod",
      "outputs": [
        {
          "internalType": "uint256",
          "name": "",
          "type": "uint256"
        }
      ],
      "stateMutability": "view",
      "type": "function"
    },
    {
      "inputs": [],
      "name": "minPoolAllocation",
      "outputs": [
        {
          "internalType": "uint256",
          "name": "",
          "type": "uint256"
        }
      ],
      "stateMutability": "view",
      "type": "function"
    },
    {
      "inputs": [],
      "name": "name",
      "outputs": [
        {
          "internalType": "string",
          "name": "",
          "type": "string"
        }
      ],
      "stateMutability": "view",
      "type": "function"
    },
    {
      "inputs": [],
      "name": "poolDeposits",
      "outputs": [
        {
          "internalType": "uint256",
          "name": "",
          "type": "uint256"
        }
      ],
      "stateMutability": "view",
      "type": "function"
    },
    {
      "inputs": [],
      "name": "poolToken",
      "outputs": [
        {
          "internalType": "contract ERC20",
          "name": "",
          "type": "address"
        }
      ],
      "stateMutability": "view",
      "type": "function"
    },
    {
      "inputs": [
        {
          "internalType": "uint256",
          "name": "_loanId",
          "type": "uint256"
        },
        {
          "internalType": "uint256",
          "name": "_amt",
          "type": "uint256"
        }
      ],
      "name": "repay",
      "outputs": [],
      "stateMutability": "nonpayable",
      "type": "function"
    },
    {
      "inputs": [
        {
          "internalType": "uint256",
          "name": "_amt",
          "type": "uint256"
        },
        {
          "internalType": "uint256",
          "name": "durationDays",
          "type": "uint256"
        }
      ],
      "name": "request",
      "outputs": [],
      "stateMutability": "nonpayable",
      "type": "function"
    },
    {
      "inputs": [
        {
          "internalType": "uint256",
          "name": "_lendingRateAPR",
          "type": "uint256"
        }
      ],
      "name": "setLendingRate",
      "outputs": [],
      "stateMutability": "nonpayable",
      "type": "function"
    },
    {
      "inputs": [],
      "name": "symbol",
      "outputs": [
        {
          "internalType": "string",
          "name": "",
          "type": "string"
        }
      ],
      "stateMutability": "view",
      "type": "function"
    },
    {
      "inputs": [],
      "name": "totalLoanValue",
      "outputs": [
        {
          "internalType": "uint256",
          "name": "",
          "type": "uint256"
        }
      ],
      "stateMutability": "view",
      "type": "function"
    },
    {
      "inputs": [],
      "name": "totalSupply",
      "outputs": [
        {
          "internalType": "uint256",
          "name": "",
          "type": "uint256"
        }
      ],
      "stateMutability": "view",
      "type": "function"
    },
    {
      "inputs": [
        {
          "internalType": "address",
          "name": "to",
          "type": "address"
        },
        {
          "internalType": "uint256",
          "name": "amount",
          "type": "uint256"
        }
      ],
      "name": "transfer",
      "outputs": [
        {
          "internalType": "bool",
          "name": "",
          "type": "bool"
        }
      ],
      "stateMutability": "nonpayable",
      "type": "function"
    },
    {
      "inputs": [
        {
          "internalType": "address",
          "name": "from",
          "type": "address"
        },
        {
          "internalType": "address",
          "name": "to",
          "type": "address"
        },
        {
          "internalType": "uint256",
          "name": "amount",
          "type": "uint256"
        }
      ],
      "name": "transferFrom",
      "outputs": [
        {
          "internalType": "bool",
          "name": "",
          "type": "bool"
        }
      ],
      "stateMutability": "nonpayable",
      "type": "function"
    },
    {
      "inputs": [
        {
          "internalType": "address",
          "name": "_aa",
          "type": "address"
        }
      ],
      "name": "updateApproverReputation",
      "outputs": [],
      "stateMutability": "nonpayable",
      "type": "function"
    },
    {
      "inputs": [
        {
          "internalType": "address",
          "name": "_ba",
          "type": "address"
        }
      ],
      "name": "updateBorrowerReputation",
      "outputs": [],
      "stateMutability": "nonpayable",
      "type": "function"
    },
    {
      "inputs": [
        {
          "internalType": "uint256",
          "name": "amount",
          "type": "uint256"
        }
      ],
      "name": "withdraw",
      "outputs": [],
      "stateMutability": "nonpayable",
      "type": "function"
    }
  ],
  "bytecode": {
    "object": "0x6080604052606780546001600160a01b03191673e6b8a5cf854791412c1f6efc7caf629f5df1c7471790553480156200003757600080fd5b5060405162002cc838038062002cc88339810160408190526200005a91620000f3565b606580546001600160a01b038087166001600160a01b0319928316179092556066805492861692909116919091179055620000968183620000a0565b5050505062000140565b60688290556071819055662386f26fc10000607255620000cd6069620000d1602090811b62001eb117901c565b5050565b80546001019055565b6001600160a01b0381168114620000f057600080fd5b50565b600080600080608085870312156200010a57600080fd5b84516200011781620000da565b60208601519094506200012a81620000da565b6040860151606090960151949790965092505050565b612b7880620001506000396000f3fe608060405234801561001057600080fd5b50600436106102955760003560e01c806395d89b4111610167578063cbdf382c116100ce578063e1ec3c6811610087578063e1ec3c68146106b2578063e28db5401461060e578063e4a3011614610740578063eb02241414610753578063fe9d087e1461075b578063ffe6a18e1461076e57600080fd5b8063cbdf382c1461063d578063d1a87f6414610668578063d8aed14514610671578063d93ba2c714610684578063dd62ed3e1461068c578063dee5b5ef1461069f57600080fd5b8063b759f95411610120578063b759f95414610596578063b9306dda146105a9578063bf5d50c4146105bc578063c0e70e7314610606578063c63c8b361461060e578063c713bf8c1461062a57600080fd5b806395d89b411461052c5780639be5b2bd14610534578063a457c2d714610548578063a9059cbb1461055b578063ad5f6bf01461056e578063b6b55f251461058357600080fd5b8063395093511161020b578063759135a1116101c4578063759135a11461048757806382bf92511461049a5780638bc802fb146104ad5780639146a775146104c0578063939c2a2b146105065780639574af481461051957600080fd5b8063395093511461040657806342528738146104195780634807b6cf1461042c5780634d6cbff41461044c57806370a082311461045557806372f943651461047e57600080fd5b80631d9bc62e1161025d5780631d9bc62e146103aa5780632241285d146103b357806323b872dd146103bc5780632e1a7d4d146103cf578063313ce567146103e45780633202996b146103f357600080fd5b806306fdde031461029a578063095ea7b3146102b85780630a144391146102db5780630aed3ca11461033057806318160ddd14610398575b600080fd5b6102a2610775565b6040516102af9190612677565b60405180910390f35b6102cb6102c63660046126e8565b610807565b60405190151581526020016102af565b6103106102e9366004612712565b606a6020526000908152604090208054600182015460028301546003909301549192909184565b6040805194855260208501939093529183015260608201526080016102af565b61034361033e36600461272d565b610821565b6040516102af919081516001600160a01b0390811682526020808401519083015260408084015190830152606080840151909116908201526080808301519082015260a0918201519181019190915260c00190565b6035545b6040519081526020016102af565b61039c60725481565b61039c60685481565b6102cb6103ca366004612746565b6108d1565b6103e26103dd36600461272d565b6108f7565b005b604051601281526020016102af565b61039c610401366004612782565b610aec565b6102cb6104143660046126e8565b610ba8565b61039c61042736600461272d565b610bca565b61043f61043a366004612712565b610beb565b6040516102af9190612851565b61039c606f5481565b61039c610463366004612712565b6001600160a01b031660009081526033602052604090205490565b61039c60705481565b6102cb61049536600461272d565b610caf565b61039c6104a836600461272d565b610d45565b6103e26104bb36600461288a565b610d55565b6104d36104ce366004612712565b610fba565b6040516102af91908151815260208083015190820152604080830151908201526060918201519181019190915260800190565b6103e261051436600461272d565b606855565b6103e2610527366004612712565b611033565b6102a261105f565b61039c610542366004612712565b50600090565b6102cb6105563660046126e8565b61106e565b6102cb6105693660046126e8565b6110f4565b610576611102565b6040516102af91906128ac565b6103e261059136600461272d565b6111de565b6103e26105a436600461272d565b6113a0565b6102cb6105b73660046126e8565b611743565b6105eb6105ca366004612712565b606b6020526000908152604090208054600182015460029092015490919083565b604080519384526020840192909252908201526060016102af565b61039c611834565b61039c61061c36600461272d565b50683635c9adc5dea0000090565b61039c6106383660046126e8565b6118d3565b606554610650906001600160a01b031681565b6040516001600160a01b0390911681526020016102af565b61039c60715481565b6103e261067f36600461288a565b61193d565b61039c611b9e565b61039c61069a3660046128bf565b611c9b565b6103e26106ad366004612712565b611cc6565b6107026106c036600461272d565b606c602052600090815260409020805460018201546002830154600384015460048501546005909501546001600160a01b039485169593949293919092169186565b604080516001600160a01b039788168152602081019690965285019390935293166060830152608082019290925260a081019190915260c0016102af565b6103e261074e36600461288a565b611cf6565b61039c611d1d565b61039c61076936600461272d565b611d66565b60c861039c565b606060368054610784906128f2565b80601f01602080910402602001604051908101604052809291908181526020018280546107b0906128f2565b80156107fd5780601f106107d2576101008083540402835291602001916107fd565b820191906000526020600020905b8154815290600101906020018083116107e057829003601f168201915b5050505050905090565b600033610815818585611eba565b60019150505b92915050565b61086c6040518060c0016040528060006001600160a01b03168152602001600081526020016000815260200160006001600160a01b0316815260200160008152602001600081525090565b506000908152606c6020908152604091829020825160c08101845281546001600160a01b03908116825260018301549382019390935260028201549381019390935260038101549091166060830152600481015460808301526005015460a082015290565b6000336108df858285611fdf565b6108ea858585612059565b60019150505b9392505050565b6000811161094c5760405162461bcd60e51b815260206004820152601c60248201527f4d757374207769746864726177206d6f7265207468616e207a65726f0000000060448201526064015b60405180910390fd5b6065546040516370a0823160e01b81523060048201526000916001600160a01b0316906370a0823190602401602060405180830381865afa158015610995573d6000803e3d6000fd5b505050506040513d601f19601f820116820180604052508101906109b99190612926565b6035546109c69084612955565b6109d09190612974565b336000908152606a602052604081206003810154815493945090926109f59190612996565b905083811015610a3c5760405162461bcd60e51b81526020600482015260126024820152714e6f7420656e6f7567682062616c616e636560701b6044820152606401610943565b83826000016000828254610a509190612996565b90915550610a5f905033611cc6565b610a6a303386612204565b50336000908152603360205260409020548311610a9057610a8b3384612371565b610aaa565b33600081815260336020526040902054610aaa9190612371565b604080518581526020810185905233917f2d4d49c3e017b8235c908cbaa83a2431a08f3b950712696ece2088964fd399f091015b60405180910390a250505050565b600080610b0b83608001518460a00151610b069190612996565b61249d565b602084015190915073__$8103477d69fb98e53a0fc5d631f2d772d4$__906305e1bd8c90610b399080612996565b6068546040516001600160e01b031960e085901b1681526004810192909252602482015260448101849052606401602060405180830381865af4158015610b84573d6000803e3d6000fd5b505050506040513d601f19601f820116820180604052508101906108f09190612926565b600033610815818585610bbb8383611c9b565b610bc591906129ad565b611eba565b606d8181548110610bda57600080fd5b600091825260209091200154905081565b610c166040518060800160405280600081526020016000815260200160008152602001606081525090565b6001600160a01b0382166000908152606b60209081526040918290208251608081018452815481526001820154818401526002820154818501526003820180548551818602810186019096528086529194929360608601939290830182828015610c9f57602002820191906000526020600020905b815481526020019060010190808311610c8b575b5050505050815250509050919050565b6000818152606c60209081526040808320815160c08101835281546001600160a01b039081168252600183015494820194909452600282015492810192909252600381015490921660608201526004820154608082015260059091015460a0820181905242118015610d28575080604001518160200151115b15610d365750600192915050565b50600092915050565b50919050565b606e8181548110610bda57600080fd5b3360008311610da65760405162461bcd60e51b815260206004820152601a60248201527f4d75737420626f72726f77206d6f7265207468616e207a65726f0000000000006044820152606401610943565b600082118015610db857506071548211155b610e1c5760405162461bcd60e51b815260206004820152602f60248201527f4552524f523a20696e76616c69642074696d6520706572696f6420666f72207460448201526e1a19481b1bd85b881c995c5d595cdd608a1b6064820152608401610943565b336000908152606b602052604081206003810154909103610e4057610e4033611033565b80546001820154610e5190866129ad565b10610e9e5760405162461bcd60e51b815260206004820152601c60248201527f476f696e67206f76657220796f757220626f72726f77206c696d6974000000006044820152606401610943565b6000610ea960695490565b90506040518060c00160405280336001600160a01b031681526020018681526020016000815260200160006001600160a01b03168152602001610eeb866124b7565b815260006020918201819052838152606c8252604090819020835181546001600160a01b039182166001600160a01b031991821617835593850151600183015591840151600282015560608401516003820180549190931693169290921790556080820151600482015560a090910151600590910155610f6f606980546001019055565b610f7833611033565b604080518281526020810187905233917fc67abf520079310bcee1cfa50d430c50ae4a6ecba1849b43899611166b5e4c82910160405180910390a25050505050565b610fe56040518060800160405280600081526020016000815260200160008152602001600081525090565b506001600160a01b03166000908152606a6020908152604091829020825160808101845281548152600182015492810192909252600281015492820192909252600390910154606082015290565b6001600160a01b03166000908152606b6020526040902060c86002820155683635c9adc5dea000009055565b606060378054610784906128f2565b6000338161107c8286611c9b565b9050838110156110dc5760405162461bcd60e51b815260206004820152602560248201527f45524332303a2064656372656173656420616c6c6f77616e63652062656c6f77604482015264207a65726f60d81b6064820152608401610943565b6110e98286868403611eba565b506001949350505050565b600033610815818585612059565b606060005b606d5481101561118357611137606d8281548110611127576111276129c5565b9060005260206000200154610caf565b1561117157606e606d8281548110611151576111516129c5565b600091825260208083209091015483546001810185559383529120909101555b8061117b816129db565b915050611107565b506000606e8054806020026020016040519081016040528092919081815260200182805480156111d257602002820191906000526020600020905b8154815260200190600101908083116111be575b50939695505050505050565b6000811161122e5760405162461bcd60e51b815260206004820152601b60248201527f4d757374206465706f736974206d6f7265207468616e207a65726f00000000006044820152606401610943565b600061123b333084612204565b90508061128a5760405162461bcd60e51b815260206004820152601e60248201527f4661696c656420746f207472616e7366657220666f72206465706f73697400006044820152606401610943565b336000908152606a602052604081205460c891036112f057604080516080810182528481526020808201848152828401878152600060608501818152338252606a9094529490942092518355516001830155915160028201559051600390910155611351565b336000908152606a60205260408120805485929061130f9084906129ad565b9091555050336000908152606a6020526040812060020180548592906113369084906129ad565b9091555050336000908152606a602052604090206001018190555b600061135c84611d66565b905061136833826124da565b604080518581526020810183905233917f0b05f0d1cd0819f155b8a61f60baf7767c1ee49d04aeaab701df236140eb93f99101610ade565b336000908152606a60205260409020546113f25760405162461bcd60e51b815260206004820152601360248201527226bab9ba1031329030b71030b8383937bb32b960691b6044820152606401610943565b6000818152606c6020526040902060018101546114405760405162461bcd60e51b815260206004820152600c60248201526b24b73b30b634b2103637b0b760a11b6044820152606401610943565b60038101546001600160a01b0316156114935760405162461bcd60e51b8152602060048201526015602482015274131bd85b88185b1c9958591e48185c1c1c9bdd9959605a1b6044820152606401610943565b336000908152606a602052604090206003015460018201546114b591906129ad565b336000908152606a6020526040902060020154116115155760405162461bcd60e51b815260206004820152601e60248201527f476f696e67206f76657220796f757220617070726f76616c206c696d697400006044820152606401610943565b80546001600160a01b03166000908152606b6020526040902060028101546115785760405162461bcd60e51b8152602060048201526016602482015275109bdc9c9bddd95c88191bd95cdb89dd08195e1a5cdd60521b6044820152606401610943565b815461158d906001600160a01b031684611743565b156115d05760405162461bcd60e51b81526020600482015260136024820152724c6f616e20616c72656164792065786973747360681b6044820152606401610943565b60038101805460018181018355600092835260208320909101859055838101549083018054919290916116049084906129ad565b90915550506003820180546001600160a01b03191633179055600482015461162c90426129ad565b6005830155606d805460018181019092557f5006b838207c6a9ae9b84d68f467dd4bb5c305fbfb6b04eab8faaabeec1e18d801849055820154336000908152606a6020526040812060030180549091906116879084906129ad565b9091555050815460018301546000916116ab9130916001600160a01b031690612204565b9050806116fa5760405162461bcd60e51b815260206004820152601d60248201527f4661696c656420746f207472616e7366657220666f7220626f72726f770000006044820152606401610943565b6001830154604080518681526020810192909252339182917f153dc5769b21c83a84e1d7b9c780392707982692fa5a6f78dbd841cdb7497edb910160405180910390a350505050565b6001600160a01b0382166000908152606b60209081526040808320815160808101835281548152600182015481850152600282015481840152600382018054845181870281018701909552808552869592946060860193909291908301828280156117cd57602002820191906000526020600020905b8154815260200190600101908083116117b9575b505050505081525050905060005b8160600151518110156118295783826060015182815181106117ff576117ff6129c5565b6020026020010151036118175760019250505061081b565b80611821816129db565b9150506117db565b506000949350505050565b600073__$8103477d69fb98e53a0fc5d631f2d772d4$__63aa9a0912611858611d1d565b6072546040516001600160e01b031960e085901b16815260048101929092526024820152670de0b6b3a76400006044820152606401602060405180830381865af41580156118aa573d6000803e3d6000fd5b505050506040513d601f19601f820116820180604052508101906118ce9190612926565b905090565b6001600160a01b0382166000908152606b602052604081206003015482106118fd5750600061081b565b6001600160a01b0383166000908152606b6020526040902060030180548390811061192a5761192a6129c5565b9060005260206000200154905092915050565b6000811161198d5760405162461bcd60e51b815260206004820152601a60248201527f4d75737420626f72726f77206d6f7265207468616e207a65726f0000000000006044820152606401610943565b6000828152606c60209081526040808320338452606b835281842060038201546001600160a01b03168552606a90935292206119c885610caf565b15611a0b5760405162461bcd60e51b81526020600482015260136024820152725061737365642074686520646561646c696e6560681b6044820152606401610943565b8160010154841115611a5f5760405162461bcd60e51b815260206004820152601d60248201527f43616e2774207265706179206d6f7265207468616e20796f75206f77650000006044820152606401610943565b6040805160c08101825284546001600160a01b039081168252600186015460208301526002860154928201929092526003850154909116606082015260048401546080820152600584015460a0820152600090611abb90610aec565b611ac590866129ad565b90506000611ad4303388612204565b905080611b235760405162461bcd60e51b815260206004820152601c60248201527f4661696c656420746f207472616e7366657220666f72207265706179000000006044820152606401610943565b600060018601558454611b409088906001600160a01b031661259b565b85846001016000828254611b549190612996565b9250508190555085836003016000828254611b6f9190612996565b90915550611b7e905033611033565b6003850154611b95906001600160a01b0316611cc6565b50505050505050565b600080805b606d54811015610d3f576000606c6000606d8481548110611bc657611bc66129c5565b600091825260208083209091015483528281019390935260409182019020815160c08101835281546001600160a01b039081168252600183015494820194909452600282015492810192909252600381015490921660608201526004820154608082015260059091015460a0820181905290915042108015611c4f575080602001518160400151105b15611c88578060400151611c6282610aec565b8260200151611c7191906129ad565b611c7b9190612996565b611c8590846129ad565b92505b5080611c93816129db565b915050611ba3565b6001600160a01b03918216600090815260346020908152604080832093909416825291909152205490565b6001600160a01b03166000908152606a6020526040902060c86001820155683635c9adc5dea00000600290910155565b60688290556071819055662386f26fc10000607255611d19606980546001019055565b5050565b6065546040516370a0823160e01b81523060048201526000916001600160a01b0316906370a0823190602401602060405180830381865afa1580156118aa573d6000803e3d6000fd5b600080611d7260355490565b905080600003611e1e57606560009054906101000a90046001600160a01b03166001600160a01b031663313ce5676040518163ffffffff1660e01b8152600401602060405180830381865afa158015611dcf573d6000803e3d6000fd5b505050506040513d601f19601f82011682018060405250810190611df391906129f4565b611dfe90600a612afb565b611e0a6012600a612afb565b611e149085612955565b6108f09190612974565b82611e27611b9e565b6065546040516370a0823160e01b81523060048201526001600160a01b03909116906370a0823190602401602060405180830381865afa158015611e6f573d6000803e3d6000fd5b505050506040513d601f19601f82011682018060405250810190611e939190612926565b611e9d91906129ad565b611ea79190612996565b611e148285612955565b80546001019055565b6001600160a01b038316611f1c5760405162461bcd60e51b8152602060048201526024808201527f45524332303a20617070726f76652066726f6d20746865207a65726f206164646044820152637265737360e01b6064820152608401610943565b6001600160a01b038216611f7d5760405162461bcd60e51b815260206004820152602260248201527f45524332303a20617070726f766520746f20746865207a65726f206164647265604482015261737360f01b6064820152608401610943565b6001600160a01b0383811660008181526034602090815260408083209487168084529482529182902085905590518481527f8c5be1e5ebec7d5bd14f71427d1e84f3dd0314c0f7b2291e5b200ac8c7c3b92591015b60405180910390a3505050565b6000611feb8484611c9b565b9050600019811461205357818110156120465760405162461bcd60e51b815260206004820152601d60248201527f45524332303a20696e73756666696369656e7420616c6c6f77616e63650000006044820152606401610943565b6120538484848403611eba565b50505050565b6001600160a01b0383166120bd5760405162461bcd60e51b815260206004820152602560248201527f45524332303a207472616e736665722066726f6d20746865207a65726f206164604482015264647265737360d81b6064820152608401610943565b6001600160a01b03821661211f5760405162461bcd60e51b815260206004820152602360248201527f45524332303a207472616e7366657220746f20746865207a65726f206164647260448201526265737360e81b6064820152608401610943565b6001600160a01b038316600090815260336020526040902054818110156121975760405162461bcd60e51b815260206004820152602660248201527f45524332303a207472616e7366657220616d6f756e7420657863656564732062604482015265616c616e636560d01b6064820152608401610943565b6001600160a01b0380851660008181526033602052604080822086860390559286168082529083902080548601905591517fddf252ad1be2c89b69c2b068fc378daa952ba7f163c4a11628f55a4df523b3ef906121f79086815260200190565b60405180910390a3612053565b60006001600160a01b03831661225c5760405162461bcd60e51b815260206004820152601a60248201527f43616e27742073656e6420746f207a65726f20616464726573730000000000006044820152606401610943565b306001600160a01b038516036122ea5760655460405163a9059cbb60e01b81526001600160a01b038581166004830152602482018590529091169063a9059cbb906044016020604051808303816000875af11580156122bf573d6000803e3d6000fd5b505050506040513d601f19601f820116820180604052508101906122e39190612b0a565b90506108f0565b6065546040516323b872dd60e01b81526001600160a01b038681166004830152858116602483015260448201859052909116906323b872dd906064016020604051808303816000875af1158015612345573d6000803e3d6000fd5b505050506040513d601f19601f820116820180604052508101906123699190612b0a565b949350505050565b6001600160a01b0382166123d15760405162461bcd60e51b815260206004820152602160248201527f45524332303a206275726e2066726f6d20746865207a65726f206164647265736044820152607360f81b6064820152608401610943565b6001600160a01b038216600090815260336020526040902054818110156124455760405162461bcd60e51b815260206004820152602260248201527f45524332303a206275726e20616d6f756e7420657863656564732062616c616e604482015261636560f01b6064820152608401610943565b6001600160a01b03831660008181526033602090815260408083208686039055603580548790039055518581529192917fddf252ad1be2c89b69c2b068fc378daa952ba7f163c4a11628f55a4df523b3ef9101611fd2565b6000620151806124ad8342612996565b61081b9190612974565b60006124c4826018612955565b6124cf90603c612955565b61081b90603c612955565b6001600160a01b0382166125305760405162461bcd60e51b815260206004820152601f60248201527f45524332303a206d696e7420746f20746865207a65726f2061646472657373006044820152606401610943565b806035600082825461254291906129ad565b90915550506001600160a01b0382166000818152603360209081526040808320805486019055518481527fddf252ad1be2c89b69c2b068fc378daa952ba7f163c4a11628f55a4df523b3ef910160405180910390a35050565b6001600160a01b0381166000908152606b6020526040812060030190805b82548110156125ff57848382815481106125d5576125d56129c5565b9060005260206000200154036125ed578091506125ff565b806125f7816129db565b9150506125b9565b508154829061261090600190612996565b81548110612620576126206129c5565b906000526020600020015482828154811061263d5761263d6129c5565b90600052602060002001819055508180548061265b5761265b612b2c565b6001900381819060005260206000200160009055905550505050565b600060208083528351808285015260005b818110156126a457858101830151858201604001528201612688565b818111156126b6576000604083870101525b50601f01601f1916929092016040019392505050565b80356001600160a01b03811681146126e357600080fd5b919050565b600080604083850312156126fb57600080fd5b612704836126cc565b946020939093013593505050565b60006020828403121561272457600080fd5b6108f0826126cc565b60006020828403121561273f57600080fd5b5035919050565b60008060006060848603121561275b57600080fd5b612764846126cc565b9250612772602085016126cc565b9150604084013590509250925092565b600060c0828403121561279457600080fd5b60405160c0810181811067ffffffffffffffff821117156127c557634e487b7160e01b600052604160045260246000fd5b6040526127d1836126cc565b815260208301356020820152604083013560408201526127f3606084016126cc565b60608201526080830135608082015260a083013560a08201528091505092915050565b600081518084526020808501945080840160005b838110156128465781518752958201959082019060010161282a565b509495945050505050565b602081528151602082015260208201516040820152604082015160608201526000606083015160808084015261236960a0840182612816565b6000806040838503121561289d57600080fd5b50508035926020909101359150565b6020815260006108f06020830184612816565b600080604083850312156128d257600080fd5b6128db836126cc565b91506128e9602084016126cc565b90509250929050565b600181811c9082168061290657607f821691505b602082108103610d3f57634e487b7160e01b600052602260045260246000fd5b60006020828403121561293857600080fd5b5051919050565b634e487b7160e01b600052601160045260246000fd5b600081600019048311821515161561296f5761296f61293f565b500290565b60008261299157634e487b7160e01b600052601260045260246000fd5b500490565b6000828210156129a8576129a861293f565b500390565b600082198211156129c0576129c061293f565b500190565b634e487b7160e01b600052603260045260246000fd5b6000600182016129ed576129ed61293f565b5060010190565b600060208284031215612a0657600080fd5b815160ff811681146108f057600080fd5b600181815b80851115612a52578160001904821115612a3857612a3861293f565b80851615612a4557918102915b93841c9390800290612a1c565b509250929050565b600082612a695750600161081b565b81612a765750600061081b565b8160018114612a8c5760028114612a9657612ab2565b600191505061081b565b60ff841115612aa757612aa761293f565b50506001821b61081b565b5060208310610133831016604e8410600b8410161715612ad5575081810a61081b565b612adf8383612a17565b8060001904821115612af357612af361293f565b029392505050565b60006108f060ff841683612a5a565b600060208284031215612b1c57600080fd5b815180151581146108f057600080fd5b634e487b7160e01b600052603160045260246000fdfea2646970667358221220d3cb969f656dd6d310cda140e047fe2a64e0c12033ecf766dbe44a29ca874fe264736f6c634300080f0033",
    "linkReferences": {
      "src/helpers/Math.sol": {
        "Math": [
          {
            "start": 3173,
            "length": 20
          },
          {
            "start": 6536,
            "length": 20
          }
        ]
      }
    }
  },
  "methodIdentifiers": {
    "allowance(address,address)": "dd62ed3e",
    "approve(address,uint256)": "095ea7b3",
    "approve(uint256)": "b759f954",
    "approvers(address)": "0a144391",
    "bLoans(uint256)": "82bf9251",
    "balanceOf(address)": "70a08231",
    "borrowers(address)": "bf5d50c4",
    "calcInterest((address,uint256,uint256,address,uint256,uint256))": "3202996b",
    "checkDefault(uint256)": "759135a1",
    "currentLoans(uint256)": "42528738",
    "decimals()": "313ce567",
    "decreaseAllowance(address,uint256)": "a457c2d7",
    "deposit(uint256)": "b6b55f25",
    "getApprovalLimit(uint256)": "c63c8b36",
    "getApprovers(address)": "9146a775",
    "getBadLoans()": "ad5f6bf0",
    "getBorrowLimit(uint256)": "e28db540",
    "getBorrowerLoan(address,uint256)": "c713bf8c",
    "getBorrowers(address)": "4807b6cf",
    "getInitialBorrowLimit()": "c0e70e73",
    "getLoans(uint256)": "0aed3ca1",
    "getPoolReserves()": "eb022414",
    "getPoolShare(uint256)": "fe9d087e",
    "getRepayAmount(address)": "9be5b2bd",
    "getReputation()": "ffe6a18e",
    "increaseAllowance(address,uint256)": "39509351",
    "initialize(uint256,uint256)": "e4a30116",
    "lendingRateAPR()": "2241285d",
    "loanAlreadyExists(address,uint256)": "b9306dda",
    "loans(uint256)": "e1ec3c68",
    "maxLoanAmount()": "72f94365",
    "maxTimePeriod()": "d1a87f64",
    "minPoolAllocation()": "1d9bc62e",
    "name()": "06fdde03",
    "poolDeposits()": "4d6cbff4",
    "poolToken()": "cbdf382c",
    "repay(uint256,uint256)": "d8aed145",
    "request(uint256,uint256)": "8bc802fb",
    "setLendingRate(uint256)": "939c2a2b",
    "symbol()": "95d89b41",
    "totalLoanValue()": "d93ba2c7",
    "totalSupply()": "18160ddd",
    "transfer(address,uint256)": "a9059cbb",
    "transferFrom(address,address,uint256)": "23b872dd",
    "updateApproverReputation(address)": "dee5b5ef",
    "updateBorrowerReputation(address)": "9574af48",
    "withdraw(uint256)": "2e1a7d4d"
  },
  "id": 33
}